{
  "_format": "hh-sol-artifact-1",
  "contractName": "EventTicketNFT",
  "sourceName": "contracts/EventTicketNFT.sol",
  "abi": [
    {
      "inputs": [],
      "stateMutability": "nonpayable",
      "type": "constructor"
    },
    {
      "inputs": [
        {
          "internalType": "address",
          "name": "sender",
          "type": "address"
        },
        {
          "internalType": "uint256",
          "name": "tokenId",
          "type": "uint256"
        },
        {
          "internalType": "address",
          "name": "owner",
          "type": "address"
        }
      ],
      "name": "ERC721IncorrectOwner",
      "type": "error"
    },
    {
      "inputs": [
        {
          "internalType": "address",
          "name": "operator",
          "type": "address"
        },
        {
          "internalType": "uint256",
          "name": "tokenId",
          "type": "uint256"
        }
      ],
      "name": "ERC721InsufficientApproval",
      "type": "error"
    },
    {
      "inputs": [
        {
          "internalType": "address",
          "name": "approver",
          "type": "address"
        }
      ],
      "name": "ERC721InvalidApprover",
      "type": "error"
    },
    {
      "inputs": [
        {
          "internalType": "address",
          "name": "operator",
          "type": "address"
        }
      ],
      "name": "ERC721InvalidOperator",
      "type": "error"
    },
    {
      "inputs": [
        {
          "internalType": "address",
          "name": "owner",
          "type": "address"
        }
      ],
      "name": "ERC721InvalidOwner",
      "type": "error"
    },
    {
      "inputs": [
        {
          "internalType": "address",
          "name": "receiver",
          "type": "address"
        }
      ],
      "name": "ERC721InvalidReceiver",
      "type": "error"
    },
    {
      "inputs": [
        {
          "internalType": "address",
          "name": "sender",
          "type": "address"
        }
      ],
      "name": "ERC721InvalidSender",
      "type": "error"
    },
    {
      "inputs": [
        {
          "internalType": "uint256",
          "name": "tokenId",
          "type": "uint256"
        }
      ],
      "name": "ERC721NonexistentToken",
      "type": "error"
    },
    {
      "inputs": [
        {
          "internalType": "address",
          "name": "owner",
          "type": "address"
        }
      ],
      "name": "OwnableInvalidOwner",
      "type": "error"
    },
    {
      "inputs": [
        {
          "internalType": "address",
          "name": "account",
          "type": "address"
        }
      ],
      "name": "OwnableUnauthorizedAccount",
      "type": "error"
    },
    {
      "anonymous": false,
      "inputs": [
        {
          "indexed": true,
          "internalType": "address",
          "name": "owner",
          "type": "address"
        },
        {
          "indexed": true,
          "internalType": "address",
          "name": "approved",
          "type": "address"
        },
        {
          "indexed": true,
          "internalType": "uint256",
          "name": "tokenId",
          "type": "uint256"
        }
      ],
      "name": "Approval",
      "type": "event"
    },
    {
      "anonymous": false,
      "inputs": [
        {
          "indexed": true,
          "internalType": "address",
          "name": "owner",
          "type": "address"
        },
        {
          "indexed": true,
          "internalType": "address",
          "name": "operator",
          "type": "address"
        },
        {
          "indexed": false,
          "internalType": "bool",
          "name": "approved",
          "type": "bool"
        }
      ],
      "name": "ApprovalForAll",
      "type": "event"
    },
    {
      "anonymous": false,
      "inputs": [
        {
          "indexed": false,
          "internalType": "uint256",
          "name": "_fromTokenId",
          "type": "uint256"
        },
        {
          "indexed": false,
          "internalType": "uint256",
          "name": "_toTokenId",
          "type": "uint256"
        }
      ],
      "name": "BatchMetadataUpdate",
      "type": "event"
    },
    {
      "anonymous": false,
      "inputs": [
        {
          "indexed": false,
          "internalType": "uint256",
          "name": "_tokenId",
          "type": "uint256"
        }
      ],
      "name": "MetadataUpdate",
      "type": "event"
    },
    {
      "anonymous": false,
      "inputs": [
        {
          "indexed": true,
          "internalType": "address",
          "name": "previousOwner",
          "type": "address"
        },
        {
          "indexed": true,
          "internalType": "address",
          "name": "newOwner",
          "type": "address"
        }
      ],
      "name": "OwnershipTransferred",
      "type": "event"
    },
    {
      "anonymous": false,
      "inputs": [
        {
          "indexed": true,
          "internalType": "address",
          "name": "from",
          "type": "address"
        },
        {
          "indexed": true,
          "internalType": "address",
          "name": "to",
          "type": "address"
        },
        {
          "indexed": true,
          "internalType": "uint256",
          "name": "tokenId",
          "type": "uint256"
        }
      ],
      "name": "Transfer",
      "type": "event"
    },
    {
      "inputs": [
        {
          "internalType": "address",
          "name": "to",
          "type": "address"
        },
        {
          "internalType": "uint256",
          "name": "tokenId",
          "type": "uint256"
        }
      ],
      "name": "approve",
      "outputs": [],
      "stateMutability": "nonpayable",
      "type": "function"
    },
    {
      "inputs": [
        {
          "internalType": "address",
          "name": "owner",
          "type": "address"
        }
      ],
      "name": "balanceOf",
      "outputs": [
        {
          "internalType": "uint256",
          "name": "",
          "type": "uint256"
        }
      ],
      "stateMutability": "view",
      "type": "function"
    },
    {
      "inputs": [
        {
          "internalType": "uint256",
          "name": "tokenId",
          "type": "uint256"
        }
      ],
      "name": "getApproved",
      "outputs": [
        {
          "internalType": "address",
          "name": "",
          "type": "address"
        }
      ],
      "stateMutability": "view",
      "type": "function"
    },
    {
      "inputs": [
        {
          "internalType": "uint256",
          "name": "tokenId",
          "type": "uint256"
        }
      ],
      "name": "getTicket",
      "outputs": [
        {
          "components": [
            {
              "internalType": "string",
              "name": "eventName",
              "type": "string"
            },
            {
              "internalType": "string",
              "name": "zone",
              "type": "string"
            },
            {
              "internalType": "string",
              "name": "seat",
              "type": "string"
            },
            {
              "internalType": "uint256",
              "name": "price",
              "type": "uint256"
            },
            {
              "internalType": "string",
              "name": "metadataURI",
              "type": "string"
            }
          ],
          "internalType": "struct EventTicketNFT.TicketInfo",
          "name": "",
          "type": "tuple"
        }
      ],
      "stateMutability": "view",
      "type": "function"
    },
    {
      "inputs": [
        {
          "internalType": "address",
          "name": "owner",
          "type": "address"
        },
        {
          "internalType": "address",
          "name": "operator",
          "type": "address"
        }
      ],
      "name": "isApprovedForAll",
      "outputs": [
        {
          "internalType": "bool",
          "name": "",
          "type": "bool"
        }
      ],
      "stateMutability": "view",
      "type": "function"
    },
    {
      "inputs": [
        {
          "internalType": "address",
          "name": "to",
          "type": "address"
        },
        {
          "internalType": "string",
          "name": "eventName",
          "type": "string"
        },
        {
          "internalType": "string",
          "name": "zone",
          "type": "string"
        },
        {
          "internalType": "string",
          "name": "seat",
          "type": "string"
        },
        {
          "internalType": "uint256",
          "name": "price",
          "type": "uint256"
        },
        {
          "internalType": "string",
          "name": "metadataURI",
          "type": "string"
        }
      ],
      "name": "mintTicket",
      "outputs": [
        {
          "internalType": "uint256",
          "name": "",
          "type": "uint256"
        }
      ],
      "stateMutability": "nonpayable",
      "type": "function"
    },
    {
      "inputs": [],
      "name": "name",
      "outputs": [
        {
          "internalType": "string",
          "name": "",
          "type": "string"
        }
      ],
      "stateMutability": "view",
      "type": "function"
    },
    {
      "inputs": [],
      "name": "nextTokenId",
      "outputs": [
        {
          "internalType": "uint256",
          "name": "",
          "type": "uint256"
        }
      ],
      "stateMutability": "view",
      "type": "function"
    },
    {
      "inputs": [],
      "name": "owner",
      "outputs": [
        {
          "internalType": "address",
          "name": "",
          "type": "address"
        }
      ],
      "stateMutability": "view",
      "type": "function"
    },
    {
      "inputs": [
        {
          "internalType": "uint256",
          "name": "tokenId",
          "type": "uint256"
        }
      ],
      "name": "ownerOf",
      "outputs": [
        {
          "internalType": "address",
          "name": "",
          "type": "address"
        }
      ],
      "stateMutability": "view",
      "type": "function"
    },
    {
      "inputs": [],
      "name": "renounceOwnership",
      "outputs": [],
      "stateMutability": "nonpayable",
      "type": "function"
    },
    {
      "inputs": [
        {
          "internalType": "address",
          "name": "from",
          "type": "address"
        },
        {
          "internalType": "address",
          "name": "to",
          "type": "address"
        },
        {
          "internalType": "uint256",
          "name": "tokenId",
          "type": "uint256"
        }
      ],
      "name": "safeTransferFrom",
      "outputs": [],
      "stateMutability": "nonpayable",
      "type": "function"
    },
    {
      "inputs": [
        {
          "internalType": "address",
          "name": "from",
          "type": "address"
        },
        {
          "internalType": "address",
          "name": "to",
          "type": "address"
        },
        {
          "internalType": "uint256",
          "name": "tokenId",
          "type": "uint256"
        },
        {
          "internalType": "bytes",
          "name": "data",
          "type": "bytes"
        }
      ],
      "name": "safeTransferFrom",
      "outputs": [],
      "stateMutability": "nonpayable",
      "type": "function"
    },
    {
      "inputs": [
        {
          "internalType": "address",
          "name": "operator",
          "type": "address"
        },
        {
          "internalType": "bool",
          "name": "approved",
          "type": "bool"
        }
      ],
      "name": "setApprovalForAll",
      "outputs": [],
      "stateMutability": "nonpayable",
      "type": "function"
    },
    {
      "inputs": [
        {
          "internalType": "bytes4",
          "name": "interfaceId",
          "type": "bytes4"
        }
      ],
      "name": "supportsInterface",
      "outputs": [
        {
          "internalType": "bool",
          "name": "",
          "type": "bool"
        }
      ],
      "stateMutability": "view",
      "type": "function"
    },
    {
      "inputs": [],
      "name": "symbol",
      "outputs": [
        {
          "internalType": "string",
          "name": "",
          "type": "string"
        }
      ],
      "stateMutability": "view",
      "type": "function"
    },
    {
      "inputs": [
        {
          "internalType": "uint256",
          "name": "",
          "type": "uint256"
        }
      ],
      "name": "ticketDetails",
      "outputs": [
        {
          "internalType": "string",
          "name": "eventName",
          "type": "string"
        },
        {
          "internalType": "string",
          "name": "zone",
          "type": "string"
        },
        {
          "internalType": "string",
          "name": "seat",
          "type": "string"
        },
        {
          "internalType": "uint256",
          "name": "price",
          "type": "uint256"
        },
        {
          "internalType": "string",
          "name": "metadataURI",
          "type": "string"
        }
      ],
      "stateMutability": "view",
      "type": "function"
    },
    {
      "inputs": [
        {
          "internalType": "uint256",
          "name": "tokenId",
          "type": "uint256"
        }
      ],
      "name": "tokenURI",
      "outputs": [
        {
          "internalType": "string",
          "name": "",
          "type": "string"
        }
      ],
      "stateMutability": "view",
      "type": "function"
    },
    {
      "inputs": [
        {
          "internalType": "address",
          "name": "from",
          "type": "address"
        },
        {
          "internalType": "address",
          "name": "to",
          "type": "address"
        },
        {
          "internalType": "uint256",
          "name": "tokenId",
          "type": "uint256"
        }
      ],
      "name": "transferFrom",
      "outputs": [],
      "stateMutability": "nonpayable",
      "type": "function"
    },
    {
      "inputs": [
        {
          "internalType": "address",
          "name": "newOwner",
          "type": "address"
        }
      ],
      "name": "transferOwnership",
      "outputs": [],
      "stateMutability": "nonpayable",
      "type": "function"
    }
  ],
  "bytecode": "0x608060405260016008553480156200001657600080fd5b50336040518060400160405280601081526020017f4576656e74205469636b6574204e4654000000000000000000000000000000008152506040518060400160405280600381526020017f45544e0000000000000000000000000000000000000000000000000000000000815250816000908162000095919062000477565b508060019081620000a7919062000477565b505050600073ffffffffffffffffffffffffffffffffffffffff168173ffffffffffffffffffffffffffffffffffffffff16036200011f5760006040517f1e4fbdf7000000000000000000000000000000000000000000000000000000008152600401620001169190620005a3565b60405180910390fd5b62000130816200013760201b60201c565b50620005c0565b6000600760009054906101000a900473ffffffffffffffffffffffffffffffffffffffff16905081600760006101000a81548173ffffffffffffffffffffffffffffffffffffffff021916908373ffffffffffffffffffffffffffffffffffffffff1602179055508173ffffffffffffffffffffffffffffffffffffffff168173ffffffffffffffffffffffffffffffffffffffff167f8be0079c531659141344cd1fd0a4f28419497f9722a3daafe3b4186f6b6457e060405160405180910390a35050565b600081519050919050565b7f4e487b7100000000000000000000000000000000000000000000000000000000600052604160045260246000fd5b7f4e487b7100000000000000000000000000000000000000000000000000000000600052602260045260246000fd5b600060028204905060018216806200027f57607f821691505b60208210810362000295576200029462000237565b5b50919050565b60008190508160005260206000209050919050565b60006020601f8301049050919050565b600082821b905092915050565b600060088302620002ff7fffffffffffffffffffffffffffffffffffffffffffffffffffffffffffffffff82620002c0565b6200030b8683620002c0565b95508019841693508086168417925050509392505050565b6000819050919050565b6000819050919050565b600062000358620003526200034c8462000323565b6200032d565b62000323565b9050919050565b6000819050919050565b620003748362000337565b6200038c62000383826200035f565b848454620002cd565b825550505050565b600090565b620003a362000394565b620003b081848462000369565b505050565b5b81811015620003d857620003cc60008262000399565b600181019050620003b6565b5050565b601f8211156200042757620003f1816200029b565b620003fc84620002b0565b810160208510156200040c578190505b620004246200041b85620002b0565b830182620003b5565b50505b505050565b600082821c905092915050565b60006200044c600019846008026200042c565b1980831691505092915050565b600062000467838362000439565b9150826002028217905092915050565b6200048282620001fd565b67ffffffffffffffff8111156200049e576200049d62000208565b5b620004aa825462000266565b620004b7828285620003dc565b600060209050601f831160018114620004ef5760008415620004da578287015190505b620004e6858262000459565b86555062000556565b601f198416620004ff866200029b565b60005b82811015620005295784890151825560018201915060208501945060208101905062000502565b8683101562000549578489015162000545601f89168262000439565b8355505b6001600288020188555050505b505050505050565b600073ffffffffffffffffffffffffffffffffffffffff82169050919050565b60006200058b826200055e565b9050919050565b6200059d816200057e565b82525050565b6000602082019050620005ba600083018462000592565b92915050565b612ee980620005d06000396000f3fe608060405234801561001057600080fd5b506004361061012c5760003560e01c806375794a3c116100ad578063aa67d21511610071578063aa67d21514610347578063b88d4fde14610377578063c87b56dd14610393578063e985e9c5146103c3578063f2fde38b146103f35761012c565b806375794a3c146102a15780637dc379fa146102bf5780638da5cb5b146102ef57806395d89b411461030d578063a22cb4651461032b5761012c565b806323b872dd116100f457806323b872dd146101ff57806342842e0e1461021b5780636352211e1461023757806370a0823114610267578063715018a6146102975761012c565b806301ffc9a714610131578063033fab351461016157806306fdde0314610195578063081812fc146101b3578063095ea7b3146101e3575b600080fd5b61014b6004803603810190610146919061212b565b61040f565b6040516101589190612173565b60405180910390f35b61017b600480360381019061017691906121c4565b610470565b60405161018c959493929190612290565b60405180910390f35b61019d6106c6565b6040516101aa91906122ff565b60405180910390f35b6101cd60048036038101906101c891906121c4565b610758565b6040516101da9190612362565b60405180910390f35b6101fd60048036038101906101f891906123a9565b610774565b005b610219600480360381019061021491906123e9565b61078a565b005b610235600480360381019061023091906123e9565b61088c565b005b610251600480360381019061024c91906121c4565b6108ac565b60405161025e9190612362565b60405180910390f35b610281600480360381019061027c919061243c565b6108be565b60405161028e9190612469565b60405180910390f35b61029f610978565b005b6102a961098c565b6040516102b69190612469565b60405180910390f35b6102d960048036038101906102d491906121c4565b610992565b6040516102e69190612568565b60405180910390f35b6102f7610c11565b6040516103049190612362565b60405180910390f35b610315610c3b565b60405161032291906122ff565b60405180910390f35b610345600480360381019061034091906125b6565b610ccd565b005b610361600480360381019061035c919061272b565b610ce3565b60405161036e9190612469565b60405180910390f35b610391600480360381019061038c91906128c9565b610dcd565b005b6103ad60048036038101906103a891906121c4565b610df2565b6040516103ba91906122ff565b60405180910390f35b6103dd60048036038101906103d8919061294c565b610f05565b6040516103ea9190612173565b60405180910390f35b61040d6004803603810190610408919061243c565b610f99565b005b6000634906490660e01b7bffffffffffffffffffffffffffffffffffffffffffffffffffffffff1916827bffffffffffffffffffffffffffffffffffffffffffffffffffffffff1916148061046957506104688261101f565b5b9050919050565b6009602052806000526040600020600091509050806000018054610493906129bb565b80601f01602080910402602001604051908101604052809291908181526020018280546104bf906129bb565b801561050c5780601f106104e15761010080835404028352916020019161050c565b820191906000526020600020905b8154815290600101906020018083116104ef57829003601f168201915b505050505090806001018054610521906129bb565b80601f016020809104026020016040519081016040528092919081815260200182805461054d906129bb565b801561059a5780601f1061056f5761010080835404028352916020019161059a565b820191906000526020600020905b81548152906001019060200180831161057d57829003601f168201915b5050505050908060020180546105af906129bb565b80601f01602080910402602001604051908101604052809291908181526020018280546105db906129bb565b80156106285780601f106105fd57610100808354040283529160200191610628565b820191906000526020600020905b81548152906001019060200180831161060b57829003601f168201915b505050505090806003015490806004018054610643906129bb565b80601f016020809104026020016040519081016040528092919081815260200182805461066f906129bb565b80156106bc5780601f10610691576101008083540402835291602001916106bc565b820191906000526020600020905b81548152906001019060200180831161069f57829003601f168201915b5050505050905085565b6060600080546106d5906129bb565b80601f0160208091040260200160405190810160405280929190818152602001828054610701906129bb565b801561074e5780601f106107235761010080835404028352916020019161074e565b820191906000526020600020905b81548152906001019060200180831161073157829003601f168201915b5050505050905090565b600061076382611101565b5061076d82611189565b9050919050565b61078682826107816111c6565b6111ce565b5050565b600073ffffffffffffffffffffffffffffffffffffffff168273ffffffffffffffffffffffffffffffffffffffff16036107fc5760006040517f64a0ae920000000000000000000000000000000000000000000000000000000081526004016107f39190612362565b60405180910390fd5b6000610810838361080b6111c6565b6111e0565b90508373ffffffffffffffffffffffffffffffffffffffff168173ffffffffffffffffffffffffffffffffffffffff1614610886578382826040517f64283d7b00000000000000000000000000000000000000000000000000000000815260040161087d939291906129ec565b60405180910390fd5b50505050565b6108a783838360405180602001604052806000815250610dcd565b505050565b60006108b782611101565b9050919050565b60008073ffffffffffffffffffffffffffffffffffffffff168273ffffffffffffffffffffffffffffffffffffffff16036109315760006040517f89c62b640000000000000000000000000000000000000000000000000000000081526004016109289190612362565b60405180910390fd5b600360008373ffffffffffffffffffffffffffffffffffffffff1673ffffffffffffffffffffffffffffffffffffffff168152602001908152602001600020549050919050565b6109806113fa565b61098a6000611481565b565b60085481565b61099a612090565b600960008381526020019081526020016000206040518060a00160405290816000820180546109c8906129bb565b80601f01602080910402602001604051908101604052809291908181526020018280546109f4906129bb565b8015610a415780601f10610a1657610100808354040283529160200191610a41565b820191906000526020600020905b815481529060010190602001808311610a2457829003601f168201915b50505050508152602001600182018054610a5a906129bb565b80601f0160208091040260200160405190810160405280929190818152602001828054610a86906129bb565b8015610ad35780601f10610aa857610100808354040283529160200191610ad3565b820191906000526020600020905b815481529060010190602001808311610ab657829003601f168201915b50505050508152602001600282018054610aec906129bb565b80601f0160208091040260200160405190810160405280929190818152602001828054610b18906129bb565b8015610b655780601f10610b3a57610100808354040283529160200191610b65565b820191906000526020600020905b815481529060010190602001808311610b4857829003601f168201915b5050505050815260200160038201548152602001600482018054610b88906129bb565b80601f0160208091040260200160405190810160405280929190818152602001828054610bb4906129bb565b8015610c015780601f10610bd657610100808354040283529160200191610c01565b820191906000526020600020905b815481529060010190602001808311610be457829003601f168201915b5050505050815250509050919050565b6000600760009054906101000a900473ffffffffffffffffffffffffffffffffffffffff16905090565b606060018054610c4a906129bb565b80601f0160208091040260200160405190810160405280929190818152602001828054610c76906129bb565b8015610cc35780601f10610c9857610100808354040283529160200191610cc3565b820191906000526020600020905b815481529060010190602001808311610ca657829003601f168201915b5050505050905090565b610cdf610cd86111c6565b8383611547565b5050565b6000610ced6113fa565b60006008549050610cfe88826116b6565b610d0881846116d4565b6040518060a0016040528088815260200187815260200186815260200185815260200184815250600960008381526020019081526020016000206000820151816000019081610d579190612bcf565b506020820151816001019081610d6d9190612bcf565b506040820151816002019081610d839190612bcf565b50606082015181600301556080820151816004019081610da39190612bcf565b5090505060086000815480929190610dba90612cd0565b9190505550809150509695505050505050565b610dd884848461078a565b610dec610de36111c6565b85858585611730565b50505050565b6060610dfd82611101565b506000600660008481526020019081526020016000208054610e1e906129bb565b80601f0160208091040260200160405190810160405280929190818152602001828054610e4a906129bb565b8015610e975780601f10610e6c57610100808354040283529160200191610e97565b820191906000526020600020905b815481529060010190602001808311610e7a57829003601f168201915b505050505090506000610ea86118e1565b90506000815103610ebd578192505050610f00565b600082511115610ef2578082604051602001610eda929190612d54565b60405160208183030381529060405292505050610f00565b610efb846118f8565b925050505b919050565b6000600560008473ffffffffffffffffffffffffffffffffffffffff1673ffffffffffffffffffffffffffffffffffffffff16815260200190815260200160002060008373ffffffffffffffffffffffffffffffffffffffff1673ffffffffffffffffffffffffffffffffffffffff16815260200190815260200160002060009054906101000a900460ff16905092915050565b610fa16113fa565b600073ffffffffffffffffffffffffffffffffffffffff168173ffffffffffffffffffffffffffffffffffffffff16036110135760006040517f1e4fbdf700000000000000000000000000000000000000000000000000000000815260040161100a9190612362565b60405180910390fd5b61101c81611481565b50565b60007f80ac58cd000000000000000000000000000000000000000000000000000000007bffffffffffffffffffffffffffffffffffffffffffffffffffffffff1916827bffffffffffffffffffffffffffffffffffffffffffffffffffffffff191614806110ea57507f5b5e139f000000000000000000000000000000000000000000000000000000007bffffffffffffffffffffffffffffffffffffffffffffffffffffffff1916827bffffffffffffffffffffffffffffffffffffffffffffffffffffffff1916145b806110fa57506110f982611961565b5b9050919050565b60008061110d836119cb565b9050600073ffffffffffffffffffffffffffffffffffffffff168173ffffffffffffffffffffffffffffffffffffffff160361118057826040517f7e2732890000000000000000000000000000000000000000000000000000000081526004016111779190612469565b60405180910390fd5b80915050919050565b60006004600083815260200190815260200160002060009054906101000a900473ffffffffffffffffffffffffffffffffffffffff169050919050565b600033905090565b6111db8383836001611a08565b505050565b6000806111ec846119cb565b9050600073ffffffffffffffffffffffffffffffffffffffff168373ffffffffffffffffffffffffffffffffffffffff161461122e5761122d818486611bcd565b5b600073ffffffffffffffffffffffffffffffffffffffff168173ffffffffffffffffffffffffffffffffffffffff16146112bf57611270600085600080611a08565b6001600360008373ffffffffffffffffffffffffffffffffffffffff1673ffffffffffffffffffffffffffffffffffffffff168152602001908152602001600020600082825403925050819055505b600073ffffffffffffffffffffffffffffffffffffffff168573ffffffffffffffffffffffffffffffffffffffff1614611342576001600360008773ffffffffffffffffffffffffffffffffffffffff1673ffffffffffffffffffffffffffffffffffffffff168152602001908152602001600020600082825401925050819055505b846002600086815260200190815260200160002060006101000a81548173ffffffffffffffffffffffffffffffffffffffff021916908373ffffffffffffffffffffffffffffffffffffffff160217905550838573ffffffffffffffffffffffffffffffffffffffff168273ffffffffffffffffffffffffffffffffffffffff167fddf252ad1be2c89b69c2b068fc378daa952ba7f163c4a11628f55a4df523b3ef60405160405180910390a4809150509392505050565b6114026111c6565b73ffffffffffffffffffffffffffffffffffffffff16611420610c11565b73ffffffffffffffffffffffffffffffffffffffff161461147f576114436111c6565b6040517f118cdaa70000000000000000000000000000000000000000000000000000000081526004016114769190612362565b60405180910390fd5b565b6000600760009054906101000a900473ffffffffffffffffffffffffffffffffffffffff16905081600760006101000a81548173ffffffffffffffffffffffffffffffffffffffff021916908373ffffffffffffffffffffffffffffffffffffffff1602179055508173ffffffffffffffffffffffffffffffffffffffff168173ffffffffffffffffffffffffffffffffffffffff167f8be0079c531659141344cd1fd0a4f28419497f9722a3daafe3b4186f6b6457e060405160405180910390a35050565b600073ffffffffffffffffffffffffffffffffffffffff168273ffffffffffffffffffffffffffffffffffffffff16036115b857816040517f5b08ba180000000000000000000000000000000000000000000000000000000081526004016115af9190612362565b60405180910390fd5b80600560008573ffffffffffffffffffffffffffffffffffffffff1673ffffffffffffffffffffffffffffffffffffffff16815260200190815260200160002060008473ffffffffffffffffffffffffffffffffffffffff1673ffffffffffffffffffffffffffffffffffffffff16815260200190815260200160002060006101000a81548160ff0219169083151502179055508173ffffffffffffffffffffffffffffffffffffffff168373ffffffffffffffffffffffffffffffffffffffff167f17307eab39ab6107e8899845ad3d59bd9653f200f220920489ca2b5937696c31836040516116a99190612173565b60405180910390a3505050565b6116d0828260405180602001604052806000815250611c91565b5050565b806006600084815260200190815260200160002090816116f49190612bcf565b507ff8e1a15aba9398e019f0b49df1a4fde98ee17ae345cb5f6b5e2c27f5033e8ce7826040516117249190612469565b60405180910390a15050565b60008373ffffffffffffffffffffffffffffffffffffffff163b11156118da578273ffffffffffffffffffffffffffffffffffffffff1663150b7a02868685856040518563ffffffff1660e01b815260040161178f9493929190612dcd565b6020604051808303816000875af19250505080156117cb57506040513d601f19601f820116820180604052508101906117c89190612e2e565b60015b61184f573d80600081146117fb576040519150601f19603f3d011682016040523d82523d6000602084013e611800565b606091505b50600081510361184757836040517f64a0ae9200000000000000000000000000000000000000000000000000000000815260040161183e9190612362565b60405180910390fd5b805160208201fd5b63150b7a0260e01b7bffffffffffffffffffffffffffffffffffffffffffffffffffffffff1916817bffffffffffffffffffffffffffffffffffffffffffffffffffffffff1916146118d857836040517f64a0ae920000000000000000000000000000000000000000000000000000000081526004016118cf9190612362565b60405180910390fd5b505b5050505050565b606060405180602001604052806000815250905090565b606061190382611101565b50600061190e6118e1565b9050600081511161192e5760405180602001604052806000815250611959565b8061193884611cb5565b604051602001611949929190612d54565b6040516020818303038152906040525b915050919050565b60007f01ffc9a7000000000000000000000000000000000000000000000000000000007bffffffffffffffffffffffffffffffffffffffffffffffffffffffff1916827bffffffffffffffffffffffffffffffffffffffffffffffffffffffff1916149050919050565b60006002600083815260200190815260200160002060009054906101000a900473ffffffffffffffffffffffffffffffffffffffff169050919050565b8080611a415750600073ffffffffffffffffffffffffffffffffffffffff168273ffffffffffffffffffffffffffffffffffffffff1614155b15611b75576000611a5184611101565b9050600073ffffffffffffffffffffffffffffffffffffffff168373ffffffffffffffffffffffffffffffffffffffff1614158015611abc57508273ffffffffffffffffffffffffffffffffffffffff168173ffffffffffffffffffffffffffffffffffffffff1614155b8015611acf5750611acd8184610f05565b155b15611b1157826040517fa9fbf51f000000000000000000000000000000000000000000000000000000008152600401611b089190612362565b60405180910390fd5b8115611b7357838573ffffffffffffffffffffffffffffffffffffffff168273ffffffffffffffffffffffffffffffffffffffff167f8c5be1e5ebec7d5bd14f71427d1e84f3dd0314c0f7b2291e5b200ac8c7c3b92560405160405180910390a45b505b836004600085815260200190815260200160002060006101000a81548173ffffffffffffffffffffffffffffffffffffffff021916908373ffffffffffffffffffffffffffffffffffffffff16021790555050505050565b611bd8838383611d83565b611c8c57600073ffffffffffffffffffffffffffffffffffffffff168373ffffffffffffffffffffffffffffffffffffffff1603611c4d57806040517f7e273289000000000000000000000000000000000000000000000000000000008152600401611c449190612469565b60405180910390fd5b81816040517f177e802f000000000000000000000000000000000000000000000000000000008152600401611c83929190612e5b565b60405180910390fd5b505050565b611c9b8383611e44565b611cb0611ca66111c6565b6000858585611730565b505050565b606060006001611cc484611f3d565b01905060008167ffffffffffffffff811115611ce357611ce2612600565b5b6040519080825280601f01601f191660200182016040528015611d155781602001600182028036833780820191505090505b509050600082602083010190505b600115611d78578080600190039150507f3031323334353637383961626364656600000000000000000000000000000000600a86061a8153600a8581611d6c57611d6b612e84565b5b04945060008503611d23575b819350505050919050565b60008073ffffffffffffffffffffffffffffffffffffffff168373ffffffffffffffffffffffffffffffffffffffff1614158015611e3b57508273ffffffffffffffffffffffffffffffffffffffff168473ffffffffffffffffffffffffffffffffffffffff161480611dfc5750611dfb8484610f05565b5b80611e3a57508273ffffffffffffffffffffffffffffffffffffffff16611e2283611189565b73ffffffffffffffffffffffffffffffffffffffff16145b5b90509392505050565b600073ffffffffffffffffffffffffffffffffffffffff168273ffffffffffffffffffffffffffffffffffffffff1603611eb65760006040517f64a0ae92000000000000000000000000000000000000000000000000000000008152600401611ead9190612362565b60405180910390fd5b6000611ec4838360006111e0565b9050600073ffffffffffffffffffffffffffffffffffffffff168173ffffffffffffffffffffffffffffffffffffffff1614611f385760006040517f73c6ac6e000000000000000000000000000000000000000000000000000000008152600401611f2f9190612362565b60405180910390fd5b505050565b600080600090507a184f03e93ff9f4daa797ed6e38ed64bf6a1f0100000000000000008310611f9b577a184f03e93ff9f4daa797ed6e38ed64bf6a1f0100000000000000008381611f9157611f90612e84565b5b0492506040810190505b6d04ee2d6d415b85acef81000000008310611fd8576d04ee2d6d415b85acef81000000008381611fce57611fcd612e84565b5b0492506020810190505b662386f26fc10000831061200757662386f26fc100008381611ffd57611ffc612e84565b5b0492506010810190505b6305f5e1008310612030576305f5e100838161202657612025612e84565b5b0492506008810190505b612710831061205557612710838161204b5761204a612e84565b5b0492506004810190505b60648310612078576064838161206e5761206d612e84565b5b0492506002810190505b600a8310612087576001810190505b80915050919050565b6040518060a0016040528060608152602001606081526020016060815260200160008152602001606081525090565b6000604051905090565b600080fd5b600080fd5b60007fffffffff0000000000000000000000000000000000000000000000000000000082169050919050565b612108816120d3565b811461211357600080fd5b50565b600081359050612125816120ff565b92915050565b600060208284031215612141576121406120c9565b5b600061214f84828501612116565b91505092915050565b60008115159050919050565b61216d81612158565b82525050565b60006020820190506121886000830184612164565b92915050565b6000819050919050565b6121a18161218e565b81146121ac57600080fd5b50565b6000813590506121be81612198565b92915050565b6000602082840312156121da576121d96120c9565b5b60006121e8848285016121af565b91505092915050565b600081519050919050565b600082825260208201905092915050565b60005b8381101561222b578082015181840152602081019050612210565b60008484015250505050565b6000601f19601f8301169050919050565b6000612253826121f1565b61225d81856121fc565b935061226d81856020860161220d565b61227681612237565b840191505092915050565b61228a8161218e565b82525050565b600060a08201905081810360008301526122aa8188612248565b905081810360208301526122be8187612248565b905081810360408301526122d28186612248565b90506122e16060830185612281565b81810360808301526122f38184612248565b90509695505050505050565b600060208201905081810360008301526123198184612248565b905092915050565b600073ffffffffffffffffffffffffffffffffffffffff82169050919050565b600061234c82612321565b9050919050565b61235c81612341565b82525050565b60006020820190506123776000830184612353565b92915050565b61238681612341565b811461239157600080fd5b50565b6000813590506123a38161237d565b92915050565b600080604083850312156123c0576123bf6120c9565b5b60006123ce85828601612394565b92505060206123df858286016121af565b9150509250929050565b600080600060608486031215612402576124016120c9565b5b600061241086828701612394565b935050602061242186828701612394565b9250506040612432868287016121af565b9150509250925092565b600060208284031215612452576124516120c9565b5b600061246084828501612394565b91505092915050565b600060208201905061247e6000830184612281565b92915050565b600082825260208201905092915050565b60006124a0826121f1565b6124aa8185612484565b93506124ba81856020860161220d565b6124c381612237565b840191505092915050565b6124d78161218e565b82525050565b600060a08301600083015184820360008601526124fa8282612495565b915050602083015184820360208601526125148282612495565b9150506040830151848203604086015261252e8282612495565b915050606083015161254360608601826124ce565b506080830151848203608086015261255b8282612495565b9150508091505092915050565b6000602082019050818103600083015261258281846124dd565b905092915050565b61259381612158565b811461259e57600080fd5b50565b6000813590506125b08161258a565b92915050565b600080604083850312156125cd576125cc6120c9565b5b60006125db85828601612394565b92505060206125ec858286016125a1565b9150509250929050565b600080fd5b600080fd5b7f4e487b7100000000000000000000000000000000000000000000000000000000600052604160045260246000fd5b61263882612237565b810181811067ffffffffffffffff8211171561265757612656612600565b5b80604052505050565b600061266a6120bf565b9050612676828261262f565b919050565b600067ffffffffffffffff82111561269657612695612600565b5b61269f82612237565b9050602081019050919050565b82818337600083830152505050565b60006126ce6126c98461267b565b612660565b9050828152602081018484840111156126ea576126e96125fb565b5b6126f58482856126ac565b509392505050565b600082601f830112612712576127116125f6565b5b81356127228482602086016126bb565b91505092915050565b60008060008060008060c08789031215612748576127476120c9565b5b600061275689828a01612394565b965050602087013567ffffffffffffffff811115612777576127766120ce565b5b61278389828a016126fd565b955050604087013567ffffffffffffffff8111156127a4576127a36120ce565b5b6127b089828a016126fd565b945050606087013567ffffffffffffffff8111156127d1576127d06120ce565b5b6127dd89828a016126fd565b93505060806127ee89828a016121af565b92505060a087013567ffffffffffffffff81111561280f5761280e6120ce565b5b61281b89828a016126fd565b9150509295509295509295565b600067ffffffffffffffff82111561284357612842612600565b5b61284c82612237565b9050602081019050919050565b600061286c61286784612828565b612660565b905082815260208101848484011115612888576128876125fb565b5b6128938482856126ac565b509392505050565b600082601f8301126128b0576128af6125f6565b5b81356128c0848260208601612859565b91505092915050565b600080600080608085870312156128e3576128e26120c9565b5b60006128f187828801612394565b945050602061290287828801612394565b9350506040612913878288016121af565b925050606085013567ffffffffffffffff811115612934576129336120ce565b5b6129408782880161289b565b91505092959194509250565b60008060408385031215612963576129626120c9565b5b600061297185828601612394565b925050602061298285828601612394565b9150509250929050565b7f4e487b7100000000000000000000000000000000000000000000000000000000600052602260045260246000fd5b600060028204905060018216806129d357607f821691505b6020821081036129e6576129e561298c565b5b50919050565b6000606082019050612a016000830186612353565b612a0e6020830185612281565b612a1b6040830184612353565b949350505050565b60008190508160005260206000209050919050565b60006020601f8301049050919050565b600082821b905092915050565b600060088302612a857fffffffffffffffffffffffffffffffffffffffffffffffffffffffffffffffff82612a48565b612a8f8683612a48565b95508019841693508086168417925050509392505050565b6000819050919050565b6000612acc612ac7612ac28461218e565b612aa7565b61218e565b9050919050565b6000819050919050565b612ae683612ab1565b612afa612af282612ad3565b848454612a55565b825550505050565b600090565b612b0f612b02565b612b1a818484612add565b505050565b5b81811015612b3e57612b33600082612b07565b600181019050612b20565b5050565b601f821115612b8357612b5481612a23565b612b5d84612a38565b81016020851015612b6c578190505b612b80612b7885612a38565b830182612b1f565b50505b505050565b600082821c905092915050565b6000612ba660001984600802612b88565b1980831691505092915050565b6000612bbf8383612b95565b9150826002028217905092915050565b612bd8826121f1565b67ffffffffffffffff811115612bf157612bf0612600565b5b612bfb82546129bb565b612c06828285612b42565b600060209050601f831160018114612c395760008415612c27578287015190505b612c318582612bb3565b865550612c99565b601f198416612c4786612a23565b60005b82811015612c6f57848901518255600182019150602085019450602081019050612c4a565b86831015612c8c5784890151612c88601f891682612b95565b8355505b6001600288020188555050505b505050505050565b7f4e487b7100000000000000000000000000000000000000000000000000000000600052601160045260246000fd5b6000612cdb8261218e565b91507fffffffffffffffffffffffffffffffffffffffffffffffffffffffffffffffff8203612d0d57612d0c612ca1565b5b600182019050919050565b600081905092915050565b6000612d2e826121f1565b612d388185612d18565b9350612d4881856020860161220d565b80840191505092915050565b6000612d608285612d23565b9150612d6c8284612d23565b91508190509392505050565b600081519050919050565b600082825260208201905092915050565b6000612d9f82612d78565b612da98185612d83565b9350612db981856020860161220d565b612dc281612237565b840191505092915050565b6000608082019050612de26000830187612353565b612def6020830186612353565b612dfc6040830185612281565b8181036060830152612e0e8184612d94565b905095945050505050565b600081519050612e28816120ff565b92915050565b600060208284031215612e4457612e436120c9565b5b6000612e5284828501612e19565b91505092915050565b6000604082019050612e706000830185612353565b612e7d6020830184612281565b9392505050565b7f4e487b7100000000000000000000000000000000000000000000000000000000600052601260045260246000fdfea2646970667358221220a5c748b5269f7604e6f1fb8130c0cd270a4e628c0d4554f6766a4a052a945e3d64736f6c63430008140033",
  "linkReferences": {},
  "deployedLinkReferences": {}
}